{"abi":[{"type":"constructor","inputs":[{"name":"backpack_","type":"address","internalType":"address"}],"stateMutability":"nonpayable"},{"type":"function","name":"backpack","inputs":[],"outputs":[{"name":"","type":"address","internalType":"contract WhisperyNFT"}],"stateMutability":"view"},{"type":"function","name":"getChannel","inputs":[{"name":"channelId","type":"bytes32","internalType":"bytes32"}],"outputs":[{"name":"","type":"tuple","internalType":"struct WhisperyBackpack.ChannelState","components":[{"name":"eeePointer","type":"string","internalType":"string"},{"name":"swarmOverlay","type":"bytes32","internalType":"bytes32"},{"name":"epoch","type":"uint256","internalType":"uint256"},{"name":"updatedAt","type":"uint256","internalType":"uint256"},{"name":"updatedBy","type":"address","internalType":"address"}]}],"stateMutability":"view"},{"type":"function","name":"getEEE","inputs":[{"name":"channelId","type":"bytes32","internalType":"bytes32"}],"outputs":[{"name":"eeePointer","type":"string","internalType":"string"},{"name":"epoch","type":"uint256","internalType":"uint256"}],"stateMutability":"view"},{"type":"function","name":"setChannel","inputs":[{"name":"channelId","type":"bytes32","internalType":"bytes32"},{"name":"eeePointer","type":"string","internalType":"string"},{"name":"swarmOverlay","type":"bytes32","internalType":"bytes32"},{"name":"epoch","type":"uint256","internalType":"uint256"}],"outputs":[],"stateMutability":"nonpayable"},{"type":"event","name":"ChannelUpdated","inputs":[{"name":"channelId","type":"bytes32","indexed":true,"internalType":"bytes32"},{"name":"epoch","type":"uint256","indexed":true,"internalType":"uint256"},{"name":"eeePointer","type":"string","indexed":false,"internalType":"string"},{"name":"swarmOverlay","type":"bytes32","indexed":false,"internalType":"bytes32"},{"name":"updatedBy","type":"address","indexed":false,"internalType":"address"}],"anonymous":false},{"type":"error","name":"EmptyPointer","inputs":[]},{"type":"error","name":"EpochMustAdvance","inputs":[{"name":"current","type":"uint256","internalType":"uint256"},{"name":"provided","type":"uint256","internalType":"uint256"}]},{"type":"error","name":"NotAMember","inputs":[{"name":"caller","type":"address","internalType":"address"}]}],"bytecode":{"object":"0x60a060405234801561000f575f80fd5b5060405161080638038061080683398101604081905261002e9161003f565b6001600160a01b031660805261006c565b5f6020828403121561004f575f80fd5b81516001600160a01b0381168114610065575f80fd5b9392505050565b60805161077c61008a5f395f818160b201526102b8015261077c5ff3fe608060405234801561000f575f80fd5b506004361061004a575f3560e01c8063831c2b821461004e578063aac6548014610077578063b0feefad14610098578063b3f88cf0146100ad575b5f80fd5b61006161005c366004610431565b6100ec565b60405161006e919061048b565b60405180910390f35b61008a610085366004610431565b6101f5565b60405161006e9291906104e2565b6100ab6100a6366004610503565b6102a3565b005b6100d47f000000000000000000000000000000000000000000000000000000000000000081565b6040516001600160a01b03909116815260200161006e565b6040805160a08101825260608082525f60208301819052928201839052810182905260808101919091525f8281526020819052604090819020815160a0810190925280548290829061013d90610586565b80601f016020809104026020016040519081016040528092919081815260200182805461016990610586565b80156101b45780601f1061018b576101008083540402835291602001916101b4565b820191905f5260205f20905b81548152906001019060200180831161019757829003601f168201915b50505091835250506001820154602082015260028201546040820152600382015460608201526004909101546001600160a01b031660809091015292915050565b5f8181526020819052604081206002810154815460609392918291829061021b90610586565b80601f016020809104026020016040519081016040528092919081815260200182805461024790610586565b80156102925780601f1061026957610100808354040283529160200191610292565b820191905f5260205f20905b81548152906001019060200180831161027557829003601f168201915b505050505091509250925050915091565b60405163288c314960e21b81523360048201527f00000000000000000000000000000000000000000000000000000000000000006001600160a01b03169063a230c52490602401602060405180830381865afa158015610305573d5f803e3d5ffd5b505050506040513d601f19601f8201168201806040525081019061032991906105be565b61034d576040516363a7ccd760e11b81523360048201526024015b60405180910390fd5b5f83900361036e57604051636de9647560e11b815260040160405180910390fd5b5f85815260208190526040902060028101548210156103b0576002810154604051634d79cd3160e01b8152600481019190915260248101839052604401610344565b806103bc858783610644565b5060018101839055600281018290554260038201556004810180546001600160a01b03191633908117909155604051839188917f080b9e8a101e38463ddee91aabd050f925aaf95ee04fb4a786b484ec00d2361c91610421918a918a918a91906106fe565b60405180910390a3505050505050565b5f60208284031215610441575f80fd5b5035919050565b5f81518084525f5b8181101561046c57602081850181015186830182015201610450565b505f602082860101526020601f19601f83011685010191505092915050565b602081525f825160a060208401526104a660c0840182610448565b905060208401516040840152604084015160608401526060840151608084015260018060a01b0360808501511660a08401528091505092915050565b604081525f6104f46040830185610448565b90508260208301529392505050565b5f805f805f60808688031215610517575f80fd5b85359450602086013567ffffffffffffffff80821115610535575f80fd5b818801915088601f830112610548575f80fd5b813581811115610556575f80fd5b896020828501011115610567575f80fd5b9699602092909201985095966040810135965060600135945092505050565b600181811c9082168061059a57607f821691505b6020821081036105b857634e487b7160e01b5f52602260045260245ffd5b50919050565b5f602082840312156105ce575f80fd5b815180151581146105dd575f80fd5b9392505050565b634e487b7160e01b5f52604160045260245ffd5b601f82111561063f57805f5260205f20601f840160051c8101602085101561061d5750805b601f840160051c820191505b8181101561063c575f8155600101610629565b50505b505050565b67ffffffffffffffff83111561065c5761065c6105e4565b6106708361066a8354610586565b836105f8565b5f601f8411600181146106a1575f851561068a5750838201355b5f19600387901b1c1916600186901b17835561063c565b5f83815260208120601f198716915b828110156106d057868501358255602094850194600190920191016106b0565b50868210156106ec575f1960f88860031b161c19848701351681555b505060018560011b0183555050505050565b60608152836060820152838560808301375f608085830181019190915260208201939093526001600160a01b03919091166040820152601f909201601f19169091010191905056fea264697066735822122018b95abd8c010b3260a5f639cc2ea4b53c71424f71ad9061aed2a196f90a0fda64736f6c63430008180033","linkReferences":{}},"methodIdentifiers":{"backpack()":"b3f88cf0","getChannel(bytes32)":"831c2b82","getEEE(bytes32)":"aac65480","setChannel(bytes32,string,bytes32,uint256)":"b0feefad"},"id":45}