{"abi":[{"type":"function","name":"UPGRADE_INTERFACE_VERSION","inputs":[],"outputs":[{"name":"","type":"string","internalType":"string"}],"stateMutability":"view"},{"type":"function","name":"approve","inputs":[{"name":"to","type":"address","internalType":"address"},{"name":"tokenId","type":"uint256","internalType":"uint256"}],"outputs":[],"stateMutability":"nonpayable"},{"type":"function","name":"balanceOf","inputs":[{"name":"owner","type":"address","internalType":"address"}],"outputs":[{"name":"","type":"uint256","internalType":"uint256"}],"stateMutability":"view"},{"type":"function","name":"burn","inputs":[{"name":"from","type":"address","internalType":"address"}],"outputs":[],"stateMutability":"nonpayable"},{"type":"function","name":"getApproved","inputs":[{"name":"tokenId","type":"uint256","internalType":"uint256"}],"outputs":[{"name":"","type":"address","internalType":"address"}],"stateMutability":"view"},{"type":"function","name":"initialize","inputs":[{"name":"name_","type":"string","internalType":"string"},{"name":"symbol_","type":"string","internalType":"string"},{"name":"owner_","type":"address","internalType":"address"}],"outputs":[],"stateMutability":"nonpayable"},{"type":"function","name":"isApprovedForAll","inputs":[{"name":"owner","type":"address","internalType":"address"},{"name":"operator","type":"address","internalType":"address"}],"outputs":[{"name":"","type":"bool","internalType":"bool"}],"stateMutability":"view"},{"type":"function","name":"isMember","inputs":[{"name":"account","type":"address","internalType":"address"}],"outputs":[{"name":"","type":"bool","internalType":"bool"}],"stateMutability":"view"},{"type":"function","name":"mint","inputs":[{"name":"to","type":"address","internalType":"address"}],"outputs":[{"name":"tokenId","type":"uint256","internalType":"uint256"}],"stateMutability":"nonpayable"},{"type":"function","name":"name","inputs":[],"outputs":[{"name":"","type":"string","internalType":"string"}],"stateMutability":"view"},{"type":"function","name":"owner","inputs":[],"outputs":[{"name":"","type":"address","internalType":"address"}],"stateMutability":"view"},{"type":"function","name":"ownerOf","inputs":[{"name":"tokenId","type":"uint256","internalType":"uint256"}],"outputs":[{"name":"","type":"address","internalType":"address"}],"stateMutability":"view"},{"type":"function","name":"proxiableUUID","inputs":[],"outputs":[{"name":"","type":"bytes32","internalType":"bytes32"}],"stateMutability":"view"},{"type":"function","name":"renounceOwnership","inputs":[],"outputs":[],"stateMutability":"nonpayable"},{"type":"function","name":"safeTransferFrom","inputs":[{"name":"from","type":"address","internalType":"address"},{"name":"to","type":"address","internalType":"address"},{"name":"tokenId","type":"uint256","internalType":"uint256"}],"outputs":[],"stateMutability":"nonpayable"},{"type":"function","name":"safeTransferFrom","inputs":[{"name":"from","type":"address","internalType":"address"},{"name":"to","type":"address","internalType":"address"},{"name":"tokenId","type":"uint256","internalType":"uint256"},{"name":"data","type":"bytes","internalType":"bytes"}],"outputs":[],"stateMutability":"nonpayable"},{"type":"function","name":"setApprovalForAll","inputs":[{"name":"operator","type":"address","internalType":"address"},{"name":"approved","type":"bool","internalType":"bool"}],"outputs":[],"stateMutability":"nonpayable"},{"type":"function","name":"supportsInterface","inputs":[{"name":"interfaceId","type":"bytes4","internalType":"bytes4"}],"outputs":[{"name":"","type":"bool","internalType":"bool"}],"stateMutability":"view"},{"type":"function","name":"symbol","inputs":[],"outputs":[{"name":"","type":"string","internalType":"string"}],"stateMutability":"view"},{"type":"function","name":"tokenIdOf","inputs":[{"name":"account","type":"address","internalType":"address"}],"outputs":[{"name":"","type":"uint256","internalType":"uint256"}],"stateMutability":"view"},{"type":"function","name":"tokenURI","inputs":[{"name":"tokenId","type":"uint256","internalType":"uint256"}],"outputs":[{"name":"","type":"string","internalType":"string"}],"stateMutability":"view"},{"type":"function","name":"totalMinted","inputs":[],"outputs":[{"name":"","type":"uint256","internalType":"uint256"}],"stateMutability":"view"},{"type":"function","name":"transferFrom","inputs":[{"name":"from","type":"address","internalType":"address"},{"name":"to","type":"address","internalType":"address"},{"name":"tokenId","type":"uint256","internalType":"uint256"}],"outputs":[],"stateMutability":"nonpayable"},{"type":"function","name":"transferOwnership","inputs":[{"name":"newOwner","type":"address","internalType":"address"}],"outputs":[],"stateMutability":"nonpayable"},{"type":"function","name":"upgradeToAndCall","inputs":[{"name":"newImplementation","type":"address","internalType":"address"},{"name":"data","type":"bytes","internalType":"bytes"}],"outputs":[],"stateMutability":"payable"},{"type":"event","name":"Approval","inputs":[{"name":"owner","type":"address","indexed":true,"internalType":"address"},{"name":"approved","type":"address","indexed":true,"internalType":"address"},{"name":"tokenId","type":"uint256","indexed":true,"internalType":"uint256"}],"anonymous":false},{"type":"event","name":"ApprovalForAll","inputs":[{"name":"owner","type":"address","indexed":true,"internalType":"address"},{"name":"operator","type":"address","indexed":true,"internalType":"address"},{"name":"approved","type":"bool","indexed":false,"internalType":"bool"}],"anonymous":false},{"type":"event","name":"Initialized","inputs":[{"name":"version","type":"uint64","indexed":false,"internalType":"uint64"}],"anonymous":false},{"type":"event","name":"MemberBurned","inputs":[{"name":"from","type":"address","indexed":true,"internalType":"address"},{"name":"tokenId","type":"uint256","indexed":true,"internalType":"uint256"}],"anonymous":false},{"type":"event","name":"MemberMinted","inputs":[{"name":"to","type":"address","indexed":true,"internalType":"address"},{"name":"tokenId","type":"uint256","indexed":true,"internalType":"uint256"}],"anonymous":false},{"type":"event","name":"OwnershipTransferred","inputs":[{"name":"previousOwner","type":"address","indexed":true,"internalType":"address"},{"name":"newOwner","type":"address","indexed":true,"internalType":"address"}],"anonymous":false},{"type":"event","name":"Transfer","inputs":[{"name":"from","type":"address","indexed":true,"internalType":"address"},{"name":"to","type":"address","indexed":true,"internalType":"address"},{"name":"tokenId","type":"uint256","indexed":true,"internalType":"uint256"}],"anonymous":false},{"type":"event","name":"Upgraded","inputs":[{"name":"implementation","type":"address","indexed":true,"internalType":"address"}],"anonymous":false},{"type":"error","name":"AddressEmptyCode","inputs":[{"name":"target","type":"address","internalType":"address"}]},{"type":"error","name":"AlreadyMember","inputs":[{"name":"account","type":"address","internalType":"address"}]},{"type":"error","name":"ERC1967InvalidImplementation","inputs":[{"name":"implementation","type":"address","internalType":"address"}]},{"type":"error","name":"ERC1967NonPayable","inputs":[]},{"type":"error","name":"ERC721IncorrectOwner","inputs":[{"name":"sender","type":"address","internalType":"address"},{"name":"tokenId","type":"uint256","internalType":"uint256"},{"name":"owner","type":"address","internalType":"address"}]},{"type":"error","name":"ERC721InsufficientApproval","inputs":[{"name":"operator","type":"address","internalType":"address"},{"name":"tokenId","type":"uint256","internalType":"uint256"}]},{"type":"error","name":"ERC721InvalidApprover","inputs":[{"name":"approver","type":"address","internalType":"address"}]},{"type":"error","name":"ERC721InvalidOperator","inputs":[{"name":"operator","type":"address","internalType":"address"}]},{"type":"error","name":"ERC721InvalidOwner","inputs":[{"name":"owner","type":"address","internalType":"address"}]},{"type":"error","name":"ERC721InvalidReceiver","inputs":[{"name":"receiver","type":"address","internalType":"address"}]},{"type":"error","name":"ERC721InvalidSender","inputs":[{"name":"sender","type":"address","internalType":"address"}]},{"type":"error","name":"ERC721NonexistentToken","inputs":[{"name":"tokenId","type":"uint256","internalType":"uint256"}]},{"type":"error","name":"FailedCall","inputs":[]},{"type":"error","name":"InvalidInitialization","inputs":[]},{"type":"error","name":"NotAMember","inputs":[{"name":"account","type":"address","internalType":"address"}]},{"type":"error","name":"NotInitializing","inputs":[]},{"type":"error","name":"OwnableInvalidOwner","inputs":[{"name":"owner","type":"address","internalType":"address"}]},{"type":"error","name":"OwnableUnauthorizedAccount","inputs":[{"name":"account","type":"address","internalType":"address"}]},{"type":"error","name":"UUPSUnauthorizedCallContext","inputs":[]},{"type":"error","name":"UUPSUnsupportedProxiableUUID","inputs":[{"name":"slot","type":"bytes32","internalType":"bytes32"}]}],"bytecode":{"object":"0x60a060405230608052348015610013575f80fd5b50608051611e2c61003a5f395f8181610c4a01528181610c730152610db20152611e2c5ff3fe608060405260043610610161575f3560e01c8063715018a6116100cd578063a2309ff811610087578063b88d4fde11610062578063b88d4fde14610451578063c87b56dd14610470578063e985e9c51461048f578063f2fde38b146104ae575f80fd5b8063a2309ff8146103d7578063a230c524146103eb578063ad3cb1cc14610421575f80fd5b8063715018a614610301578063773c02d41461031557806389afcb44146103495780638da5cb5b1461036857806395d89b41146103a4578063a22cb465146103b8575f80fd5b806342842e0e1161011e57806342842e0e146102505780634f1ef2861461026f57806352d1902d146102825780636352211e146102a45780636a627842146102c357806370a08231146102e2575f80fd5b806301ffc9a71461016557806306fdde0314610199578063077f224a146101ba578063081812fc146101db578063095ea7b31461021257806323b872dd14610231575b5f80fd5b348015610170575f80fd5b5061018461017f36600461183d565b6104cd565b60405190151581526020015b60405180910390f35b3480156101a4575f80fd5b506101ad61051e565b60405161019091906118a5565b3480156101c5575f80fd5b506101d96101d436600461196f565b6105bf565b005b3480156101e6575f80fd5b506101fa6101f53660046119de565b6106e5565b6040516001600160a01b039091168152602001610190565b34801561021d575f80fd5b506101d961022c3660046119f5565b6106f9565b34801561023c575f80fd5b506101d961024b366004611a1d565b610708565b34801561025b575f80fd5b506101d961026a366004611a1d565b610796565b6101d961027d366004611a56565b6107b5565b34801561028d575f80fd5b506102966107d0565b604051908152602001610190565b3480156102af575f80fd5b506101fa6102be3660046119de565b6107eb565b3480156102ce575f80fd5b506102966102dd366004611aa1565b6107f5565b3480156102ed575f80fd5b506102966102fc366004611aa1565b6108b1565b34801561030c575f80fd5b506101d9610909565b348015610320575f80fd5b5061029661032f366004611aa1565b6001600160a01b03165f9081526001602052604090205490565b348015610354575f80fd5b506101d9610363366004611aa1565b61091c565b348015610373575f80fd5b507f9016d09d72d40fdae2fd8ceac6b6234c7706214fd39c1cd1e609a0528c199300546001600160a01b03166101fa565b3480156103af575f80fd5b506101ad6109c2565b3480156103c3575f80fd5b506101d96103d2366004611aba565b610a00565b3480156103e2575f80fd5b50610296610a0b565b3480156103f6575f80fd5b50610184610405366004611aa1565b6001600160a01b03165f90815260016020526040902054151590565b34801561042c575f80fd5b506101ad604051806040016040528060058152602001640352e302e360dc1b81525081565b34801561045c575f80fd5b506101d961046b366004611af3565b610a1f565b34801561047b575f80fd5b506101ad61048a3660046119de565b610a37565b34801561049a575f80fd5b506101846104a9366004611b57565b610aa8565b3480156104b9575f80fd5b506101d96104c8366004611aa1565b610af4565b5f6001600160e01b031982166380ac58cd60e01b14806104fd57506001600160e01b03198216635b5e139f60e01b145b8061051857506301ffc9a760e01b6001600160e01b03198316145b92915050565b5f80516020611db7833981519152805460609190819061053d90611b88565b80601f016020809104026020016040519081016040528092919081815260200182805461056990611b88565b80156105b45780601f1061058b576101008083540402835291602001916105b4565b820191905f5260205f20905b81548152906001019060200180831161059757829003601f168201915b505050505091505090565b7ff0c57e16840df040f15088dc2f81fe391c3923bec73e23a9662efc9c229c6a008054600160401b810460ff16159067ffffffffffffffff165f811580156106045750825b90505f8267ffffffffffffffff1660011480156106205750303b155b90508115801561062e575080155b1561064c5760405163f92ee8a960e01b815260040160405180910390fd5b845467ffffffffffffffff19166001178555831561067657845460ff60401b1916600160401b1785555b6106808888610b31565b61068986610b43565b610691610b54565b60015f5583156106db57845460ff60401b19168555604051600181527fc7f505b2f371ae2175ee4913f4499e1f2633a7b5936321eed1cdaeb6115181d29060200160405180910390a15b5050505050505050565b5f6106ef82610b5c565b5061051882610b93565b610704828233610bcc565b5050565b6001600160a01b03821661073657604051633250574960e11b81525f60048201526024015b60405180910390fd5b5f610742838333610bd9565b9050836001600160a01b0316816001600160a01b031614610790576040516364283d7b60e01b81526001600160a01b038086166004830152602482018490528216604482015260640161072d565b50505050565b6107b083838360405180602001604052805f815250610a1f565b505050565b6107bd610c3f565b6107c682610ce3565b6107048282610ceb565b5f6107d9610da7565b505f80516020611dd783398151915290565b5f61051882610b5c565b5f6107fe610df0565b6001600160a01b0382165f908152600160205260409020541561083f57604051630268f92960e01b81526001600160a01b038316600482015260240161072d565b5f8054908061084d83611bd4565b909155506001600160a01b0383165f90815260016020526040902081905590506108778282610e4b565b60405181906001600160a01b038416907fe4f87a8d94653bea3f0e9995f46ce3c5d2c06a3d48d0c51a58afb0a676603799905f90a3919050565b5f5f80516020611db78339815191526001600160a01b0383166108e9576040516322718ad960e21b81525f600482015260240161072d565b6001600160a01b039092165f908152600390920160205250604090205490565b610911610df0565b61091a5f610e64565b565b610924610df0565b6001600160a01b0381165f9081526001602052604081205490819003610968576040516363a7ccd760e11b81526001600160a01b038316600482015260240161072d565b6001600160a01b0382165f9081526001602052604081205561098981610ed4565b60405181906001600160a01b038416907ff7080f5c69ff05158c7b73e31cadf8d170f023ce4df433ec51287c64e592eef1905f90a35050565b7f80bb2b638cc20bc4d0a60d66940f3ab4a00c1d7b313497ca82fb0b4ab007930180546060915f80516020611db78339815191529161053d90611b88565b610704338383610f0c565b5f60015f54610a1a9190611bec565b905090565b610a2a848484610708565b6107903385858585610fbb565b6060610a4282610b5c565b505f610a5860408051602081019091525f815290565b90505f815111610a765760405180602001604052805f815250610aa1565b80610a80846110e3565b604051602001610a91929190611bff565b6040516020818303038152906040525b9392505050565b6001600160a01b039182165f9081527f80bb2b638cc20bc4d0a60d66940f3ab4a00c1d7b313497ca82fb0b4ab00793056020908152604080832093909416825291909152205460ff1690565b610afc610df0565b6001600160a01b038116610b2557604051631e4fbdf760e01b81525f600482015260240161072d565b610b2e81610e64565b50565b610b39611173565b61070482826111bc565b610b4b611173565b610b2e816111ec565b61091a611173565b5f80610b67836111f4565b90506001600160a01b03811661051857604051637e27328960e01b81526004810184905260240161072d565b5f9081527f80bb2b638cc20bc4d0a60d66940f3ab4a00c1d7b313497ca82fb0b4ab007930460205260409020546001600160a01b031690565b6107b0838383600161122d565b5f610be5848484611340565b90506001600160a01b03811615610c0f576001600160a01b0381165f908152600160205260408120555b6001600160a01b03841615610aa1576001600160a01b0384165f9081526001602052604090208390559392505050565b306001600160a01b037f0000000000000000000000000000000000000000000000000000000000000000161480610cc557507f00000000000000000000000000000000000000000000000000000000000000006001600160a01b0316610cb95f80516020611dd7833981519152546001600160a01b031690565b6001600160a01b031614155b1561091a5760405163703e46dd60e11b815260040160405180910390fd5b610b2e610df0565b816001600160a01b03166352d1902d6040518163ffffffff1660e01b8152600401602060405180830381865afa925050508015610d45575060408051601f3d908101601f19168201909252610d4291810190611c2d565b60015b610d6d57604051634c9c8ce360e01b81526001600160a01b038316600482015260240161072d565b5f80516020611dd78339815191528114610d9d57604051632a87526960e21b81526004810182905260240161072d565b6107b08383611442565b306001600160a01b037f0000000000000000000000000000000000000000000000000000000000000000161461091a5760405163703e46dd60e11b815260040160405180910390fd5b33610e227f9016d09d72d40fdae2fd8ceac6b6234c7706214fd39c1cd1e609a0528c199300546001600160a01b031690565b6001600160a01b03161461091a5760405163118cdaa760e01b815233600482015260240161072d565b610704828260405180602001604052805f815250611497565b7f9016d09d72d40fdae2fd8ceac6b6234c7706214fd39c1cd1e609a0528c19930080546001600160a01b031981166001600160a01b03848116918217845560405192169182907f8be0079c531659141344cd1fd0a4f28419497f9722a3daafe3b4186f6b6457e0905f90a3505050565b5f610ee05f835f610bd9565b90506001600160a01b03811661070457604051637e27328960e01b81526004810183905260240161072d565b5f80516020611db78339815191526001600160a01b038316610f4c57604051630b61174360e31b81526001600160a01b038416600482015260240161072d565b6001600160a01b038481165f818152600584016020908152604080832094881680845294825291829020805460ff191687151590811790915591519182527f17307eab39ab6107e8899845ad3d59bd9653f200f220920489ca2b5937696c31910160405180910390a350505050565b6001600160a01b0383163b156110dc57604051630a85bd0160e11b81526001600160a01b0384169063150b7a0290610ffd908890889087908790600401611c44565b6020604051808303815f875af1925050508015611037575060408051601f3d908101601f1916820190925261103491810190611c80565b60015b61109e573d808015611064576040519150601f19603f3d011682016040523d82523d5f602084013e611069565b606091505b5080515f0361109657604051633250574960e11b81526001600160a01b038516600482015260240161072d565b805181602001fd5b6001600160e01b03198116630a85bd0160e11b146110da57604051633250574960e11b81526001600160a01b038516600482015260240161072d565b505b5050505050565b60605f6110ef836114ae565b60010190505f8167ffffffffffffffff81111561110e5761110e6118b7565b6040519080825280601f01601f191660200182016040528015611138576020820181803683370190505b5090508181016020015b5f19016f181899199a1a9b1b9c1cb0b131b232b360811b600a86061a8153600a850494508461114257509392505050565b7ff0c57e16840df040f15088dc2f81fe391c3923bec73e23a9662efc9c229c6a0054600160401b900460ff1661091a57604051631afcd79f60e31b815260040160405180910390fd5b6111c4611173565b5f80516020611db7833981519152806111dd8482611cdf565b50600181016107908382611cdf565b610afc611173565b5f9081527f80bb2b638cc20bc4d0a60d66940f3ab4a00c1d7b313497ca82fb0b4ab007930260205260409020546001600160a01b031690565b5f80516020611db7833981519152818061124f57506001600160a01b03831615155b15611310575f61125e85610b5c565b90506001600160a01b0384161580159061128a5750836001600160a01b0316816001600160a01b031614155b801561129d575061129b8185610aa8565b155b156112c65760405163a9fbf51f60e01b81526001600160a01b038516600482015260240161072d565b821561130e5784866001600160a01b0316826001600160a01b03167f8c5be1e5ebec7d5bd14f71427d1e84f3dd0314c0f7b2291e5b200ac8c7c3b92560405160405180910390a45b505b5f93845260040160205250506040902080546001600160a01b0319166001600160a01b0392909216919091179055565b5f5f80516020611db783398151915281611359856111f4565b90506001600160a01b0384161561137557611375818587611585565b6001600160a01b038116156113b1576113905f865f8061122d565b6001600160a01b0381165f908152600383016020526040902080545f190190555b6001600160a01b038616156113e1576001600160a01b0386165f9081526003830160205260409020805460010190555b5f85815260028301602052604080822080546001600160a01b0319166001600160a01b038a811691821790925591518893918516917fddf252ad1be2c89b69c2b068fc378daa952ba7f163c4a11628f55a4df523b3ef91a495945050505050565b61144b826115e9565b6040516001600160a01b038316907fbc7cd75a20ee27fd9adebab32041f755214dbc6bffa90cc0225b39da2e5c2d3b905f90a280511561148f576107b0828261164c565b6107046116be565b6114a183836116dd565b6107b0335f858585610fbb565b5f8072184f03e93ff9f4daa797ed6e38ed64bf6a1f0160401b83106114ec5772184f03e93ff9f4daa797ed6e38ed64bf6a1f0160401b830492506040015b6d04ee2d6d415b85acef81000000008310611518576d04ee2d6d415b85acef8100000000830492506020015b662386f26fc10000831061153657662386f26fc10000830492506010015b6305f5e100831061154e576305f5e100830492506008015b612710831061156257612710830492506004015b60648310611574576064830492506002015b600a83106105185760010192915050565b61159083838361173e565b6107b0576001600160a01b0383166115be57604051637e27328960e01b81526004810182905260240161072d565b60405163177e802f60e01b81526001600160a01b03831660048201526024810182905260440161072d565b806001600160a01b03163b5f0361161e57604051634c9c8ce360e01b81526001600160a01b038216600482015260240161072d565b5f80516020611dd783398151915280546001600160a01b0319166001600160a01b0392909216919091179055565b60605f80846001600160a01b0316846040516116689190611d9b565b5f60405180830381855af49150503d805f81146116a0576040519150601f19603f3d011682016040523d82523d5f602084013e6116a5565b606091505b50915091506116b58583836117a3565b95945050505050565b341561091a5760405163b398979f60e01b815260040160405180910390fd5b6001600160a01b03821661170657604051633250574960e11b81525f600482015260240161072d565b5f61171283835f610bd9565b90506001600160a01b038116156107b0576040516339e3563760e11b81525f600482015260240161072d565b5f6001600160a01b0383161580159061179b5750826001600160a01b0316846001600160a01b0316148061177757506117778484610aa8565b8061179b5750826001600160a01b031661179083610b93565b6001600160a01b0316145b949350505050565b6060826117b8576117b3826117ff565b610aa1565b81511580156117cf57506001600160a01b0384163b155b156117f857604051639996b31560e01b81526001600160a01b038516600482015260240161072d565b5080610aa1565b80511561180f5780518082602001fd5b60405163d6bda27560e01b815260040160405180910390fd5b6001600160e01b031981168114610b2e575f80fd5b5f6020828403121561184d575f80fd5b8135610aa181611828565b5f5b8381101561187257818101518382015260200161185a565b50505f910152565b5f8151808452611891816020860160208601611858565b601f01601f19169290920160200192915050565b602081525f610aa1602083018461187a565b634e487b7160e01b5f52604160045260245ffd5b5f82601f8301126118da575f80fd5b813567ffffffffffffffff808211156118f5576118f56118b7565b604051601f8301601f19908116603f0116810190828211818310171561191d5761191d6118b7565b81604052838152866020858801011115611935575f80fd5b836020870160208301375f602085830101528094505050505092915050565b80356001600160a01b038116811461196a575f80fd5b919050565b5f805f60608486031215611981575f80fd5b833567ffffffffffffffff80821115611998575f80fd5b6119a4878388016118cb565b945060208601359150808211156119b9575f80fd5b506119c6868287016118cb565b9250506119d560408501611954565b90509250925092565b5f602082840312156119ee575f80fd5b5035919050565b5f8060408385031215611a06575f80fd5b611a0f83611954565b946020939093013593505050565b5f805f60608486031215611a2f575f80fd5b611a3884611954565b9250611a4660208501611954565b9150604084013590509250925092565b5f8060408385031215611a67575f80fd5b611a7083611954565b9150602083013567ffffffffffffffff811115611a8b575f80fd5b611a97858286016118cb565b9150509250929050565b5f60208284031215611ab1575f80fd5b610aa182611954565b5f8060408385031215611acb575f80fd5b611ad483611954565b915060208301358015158114611ae8575f80fd5b809150509250929050565b5f805f8060808587031215611b06575f80fd5b611b0f85611954565b9350611b1d60208601611954565b925060408501359150606085013567ffffffffffffffff811115611b3f575f80fd5b611b4b878288016118cb565b91505092959194509250565b5f8060408385031215611b68575f80fd5b611b7183611954565b9150611b7f60208401611954565b90509250929050565b600181811c90821680611b9c57607f821691505b602082108103611bba57634e487b7160e01b5f52602260045260245ffd5b50919050565b634e487b7160e01b5f52601160045260245ffd5b5f60018201611be557611be5611bc0565b5060010190565b8181038181111561051857610518611bc0565b5f8351611c10818460208801611858565b835190830190611c24818360208801611858565b01949350505050565b5f60208284031215611c3d575f80fd5b5051919050565b6001600160a01b03858116825284166020820152604081018390526080606082018190525f90611c769083018461187a565b9695505050505050565b5f60208284031215611c90575f80fd5b8151610aa181611828565b601f8211156107b057805f5260205f20601f840160051c81016020851015611cc05750805b601f840160051c820191505b818110156110dc575f8155600101611ccc565b815167ffffffffffffffff811115611cf957611cf96118b7565b611d0d81611d078454611b88565b84611c9b565b602080601f831160018114611d40575f8415611d295750858301515b5f19600386901b1c1916600185901b1785556110da565b5f85815260208120601f198616915b82811015611d6e57888601518255948401946001909101908401611d4f565b5085821015611d8b57878501515f19600388901b60f8161c191681555b5050505050600190811b01905550565b5f8251611dac818460208701611858565b919091019291505056fe80bb2b638cc20bc4d0a60d66940f3ab4a00c1d7b313497ca82fb0b4ab0079300360894a13ba1a3210667c828492db98dca3e2076cc3735a920a3ca505d382bbca2646970667358221220fb27280ee2dabd9e0b960007941eb15eae77d339acb372e2a118f37c9257b60e64736f6c63430008180033","linkReferences":{}},"methodIdentifiers":{"UPGRADE_INTERFACE_VERSION()":"ad3cb1cc","approve(address,uint256)":"095ea7b3","balanceOf(address)":"70a08231","burn(address)":"89afcb44","getApproved(uint256)":"081812fc","initialize(string,string,address)":"077f224a","isApprovedForAll(address,address)":"e985e9c5","isMember(address)":"a230c524","mint(address)":"6a627842","name()":"06fdde03","owner()":"8da5cb5b","ownerOf(uint256)":"6352211e","proxiableUUID()":"52d1902d","renounceOwnership()":"715018a6","safeTransferFrom(address,address,uint256)":"42842e0e","safeTransferFrom(address,address,uint256,bytes)":"b88d4fde","setApprovalForAll(address,bool)":"a22cb465","supportsInterface(bytes4)":"01ffc9a7","symbol()":"95d89b41","tokenIdOf(address)":"773c02d4","tokenURI(uint256)":"c87b56dd","totalMinted()":"a2309ff8","transferFrom(address,address,uint256)":"23b872dd","transferOwnership(address)":"f2fde38b","upgradeToAndCall(address,bytes)":"4f1ef286"},"id":46}